{
  "contractName": "TodoList",
  "abi": [
    {
      "inputs": [
        {
          "internalType": "uint256",
          "name": "",
          "type": "uint256"
        }
      ],
      "name": "tasks",
      "outputs": [
        {
          "internalType": "string",
          "name": "taskName",
          "type": "string"
        },
        {
          "internalType": "bool",
          "name": "isCompleted",
          "type": "bool"
        }
      ],
      "stateMutability": "view",
      "type": "function"
    },
    {
      "inputs": [
        {
          "internalType": "string",
          "name": "_taskName",
          "type": "string"
        }
      ],
      "name": "createTask",
      "outputs": [],
      "stateMutability": "nonpayable",
      "type": "function"
    },
    {
      "inputs": [
        {
          "internalType": "uint256",
          "name": "_index",
          "type": "uint256"
        }
      ],
      "name": "deleteTask",
      "outputs": [],
      "stateMutability": "nonpayable",
      "type": "function"
    },
    {
      "inputs": [
        {
          "internalType": "uint256",
          "name": "_index",
          "type": "uint256"
        },
        {
          "internalType": "string",
          "name": "_newTaskName",
          "type": "string"
        },
        {
          "internalType": "bool",
          "name": "_isCompleted",
          "type": "bool"
        }
      ],
      "name": "updateTask",
      "outputs": [],
      "stateMutability": "nonpayable",
      "type": "function"
    },
    {
      "inputs": [],
      "name": "getTaskCount",
      "outputs": [
        {
          "internalType": "uint256",
          "name": "",
          "type": "uint256"
        }
      ],
      "stateMutability": "view",
      "type": "function"
    },
    {
      "inputs": [
        {
          "internalType": "uint256",
          "name": "_index",
          "type": "uint256"
        }
      ],
      "name": "getTask",
      "outputs": [
        {
          "internalType": "string",
          "name": "taskName",
          "type": "string"
        },
        {
          "internalType": "bool",
          "name": "isCompleted",
          "type": "bool"
        }
      ],
      "stateMutability": "view",
      "type": "function"
    }
  ],
  "bytecode": "0x608060405234801561001057600080fd5b50610ca6806100206000396000f3fe608060405234801561001057600080fd5b50600436106100615760003560e01c8062d5c47714610066578063111002aa146100825780631d65e77e1461009e578063560f3192146100cf5780638d977672146100eb578063c17a340e1461011c575b600080fd5b610080600480360381019061007b9190610900565b61013a565b005b61009c60048036038101906100979190610896565b610249565b005b6100b860048036038101906100b391906108d7565b6102ce565b6040516100c69291906109fe565b60405180910390f35b6100e960048036038101906100e491906108d7565b61040f565b005b610105600480360381019061010091906108d7565b6105bf565b6040516101139291906109fe565b60405180910390f35b610124610688565b6040516101319190610a4e565b60405180910390f35b6000805490508310610181576040517f08c379a000000000000000000000000000000000000000000000000000000000815260040161017890610a2e565b60405180910390fd5b81600084815481106101bc577f4e487b7100000000000000000000000000000000000000000000000000000000600052603260045260246000fd5b906000526020600020906002020160000190805190602001906101e0929190610694565b50806000848154811061021c577f4e487b7100000000000000000000000000000000000000000000000000000000600052603260045260246000fd5b906000526020600020906002020160010160006101000a81548160ff021916908315150217905550505050565b6000604051806040016040528083815260200160001515815250908060018154018082558091505060019003906000526020600020906002020160009091909190915060008201518160000190805190602001906102a8929190610694565b5060208201518160010160006101000a81548160ff021916908315150217905550505050565b6060600080805490508310610318576040517f08c379a000000000000000000000000000000000000000000000000000000000815260040161030f90610a2e565b60405180910390fd5b6000808481548110610353577f4e487b7100000000000000000000000000000000000000000000000000000000600052603260045260246000fd5b90600052602060002090600202019050806000018160010160009054906101000a900460ff1681805461038590610b72565b80601f01602080910402602001604051908101604052809291908181526020018280546103b190610b72565b80156103fe5780601f106103d3576101008083540402835291602001916103fe565b820191906000526020600020905b8154815290600101906020018083116103e157829003601f168201915b505050505091509250925050915091565b6000805490508110610456576040517f08c379a000000000000000000000000000000000000000000000000000000000815260040161044d90610a2e565b60405180910390fd5b6000600160008054905061046a9190610ae6565b815481106104a1577f4e487b7100000000000000000000000000000000000000000000000000000000600052603260045260246000fd5b9060005260206000209060020201600082815481106104e9577f4e487b7100000000000000000000000000000000000000000000000000000000600052603260045260246000fd5b9060005260206000209060020201600082018160000190805461050b90610b72565b61051692919061071a565b506001820160009054906101000a900460ff168160010160006101000a81548160ff021916908315150217905550905050600080548061057f577f4e487b7100000000000000000000000000000000000000000000000000000000600052603160045260246000fd5b6001900381819060005260206000209060020201600080820160006105a491906107a7565b6001820160006101000a81549060ff02191690555050905550565b600081815481106105cf57600080fd5b90600052602060002090600202016000915090508060000180546105f290610b72565b80601f016020809104026020016040519081016040528092919081815260200182805461061e90610b72565b801561066b5780601f106106405761010080835404028352916020019161066b565b820191906000526020600020905b81548152906001019060200180831161064e57829003601f168201915b5050505050908060010160009054906101000a900460ff16905082565b60008080549050905090565b8280546106a090610b72565b90600052602060002090601f0160209004810192826106c25760008555610709565b82601f106106db57805160ff1916838001178555610709565b82800160010185558215610709579182015b828111156107085782518255916020019190600101906106ed565b5b50905061071691906107e7565b5090565b82805461072690610b72565b90600052602060002090601f0160209004810192826107485760008555610796565b82601f106107595780548555610796565b8280016001018555821561079657600052602060002091601f016020900482015b8281111561079557825482559160010191906001019061077a565b5b5090506107a391906107e7565b5090565b5080546107b390610b72565b6000825580601f106107c557506107e4565b601f0160209004906000526020600020908101906107e391906107e7565b5b50565b5b808211156108005760008160009055506001016107e8565b5090565b600061081761081284610a9a565b610a69565b90508281526020810184848401111561082f57600080fd5b61083a848285610b30565b509392505050565b60008135905061085181610c42565b92915050565b600082601f83011261086857600080fd5b8135610878848260208601610804565b91505092915050565b60008135905061089081610c59565b92915050565b6000602082840312156108a857600080fd5b600082013567ffffffffffffffff8111156108c257600080fd5b6108ce84828501610857565b91505092915050565b6000602082840312156108e957600080fd5b60006108f784828501610881565b91505092915050565b60008060006060848603121561091557600080fd5b600061092386828701610881565b935050602084013567ffffffffffffffff81111561094057600080fd5b61094c86828701610857565b925050604061095d86828701610842565b9150509250925092565b61097081610b1a565b82525050565b600061098182610aca565b61098b8185610ad5565b935061099b818560208601610b3f565b6109a481610c31565b840191505092915050565b60006109bc601483610ad5565b91507f5461736b20646f6573206e6f742065786973742e0000000000000000000000006000830152602082019050919050565b6109f881610b26565b82525050565b60006040820190508181036000830152610a188185610976565b9050610a276020830184610967565b9392505050565b60006020820190508181036000830152610a47816109af565b9050919050565b6000602082019050610a6360008301846109ef565b92915050565b6000604051905081810181811067ffffffffffffffff82111715610a9057610a8f610c02565b5b8060405250919050565b600067ffffffffffffffff821115610ab557610ab4610c02565b5b601f19601f8301169050602081019050919050565b600081519050919050565b600082825260208201905092915050565b6000610af182610b26565b9150610afc83610b26565b925082821015610b0f57610b0e610ba4565b5b828203905092915050565b60008115159050919050565b6000819050919050565b82818337600083830152505050565b60005b83811015610b5d578082015181840152602081019050610b42565b83811115610b6c576000848401525b50505050565b60006002820490506001821680610b8a57607f821691505b60208210811415610b9e57610b9d610bd3565b5b50919050565b7f4e487b7100000000000000000000000000000000000000000000000000000000600052601160045260246000fd5b7f4e487b7100000000000000000000000000000000000000000000000000000000600052602260045260246000fd5b7f4e487b7100000000000000000000000000000000000000000000000000000000600052604160045260246000fd5b6000601f19601f8301169050919050565b610c4b81610b1a565b8114610c5657600080fd5b50565b610c6281610b26565b8114610c6d57600080fd5b5056fea2646970667358221220d272e97397c06fbae53e87e8f9315d068e7dbf3d84674002f773fe8f9a96f92864736f6c63430008000033",
  "immutableReferences": {},
  "source": "// // SPDX-License-Identifier: MIT\n// pragma solidity ^0.8.0;\n\n// contract TodoList {\n//     struct Todo {\n//         string task;\n//         bool isCompleted;\n//     }\n\n//     Todo[] public todos;\n\n//     event TaskCreated(uint taskId, string task);\n//     event TaskCompleted(uint taskId, bool isCompleted);\n\n//     function createTask(string memory _task) public {\n//         todos.push(Todo({task: _task, isCompleted: false}));\n//         emit TaskCreated(todos.length - 1, _task);\n//     }\n\n//     function getTaskCount() public view returns (uint) {\n//         return todos.length;\n//     }\n\n//     function completeTask(uint _taskId) public {\n//         Todo storage todo = todos[_taskId];\n//         todo.isCompleted = true;\n//         emit TaskCompleted(_taskId, true);\n//     }\n\n//     function getTask(\n//         uint _taskId\n//     ) public view returns (string memory task, bool isCompleted) {\n//         Todo storage todo = todos[_taskId];\n//         return (todo.task, todo.isCompleted);\n//     }\n// }\n\npragma solidity ^0.8.0;\n\ncontract TodoList {\n    struct Task {\n        string taskName;\n        bool isCompleted;\n    }\n\n    Task[] public tasks;\n\n    // Fungsi untuk membuat task baru\n    function createTask(string memory _taskName) public {\n        tasks.push(Task(_taskName, false));\n    }\n\n    // Fungsi untuk menghapus task\n    function deleteTask(uint _index) public {\n        require(_index < tasks.length, \"Task does not exist.\");\n\n        // Mengganti task yang akan dihapus dengan yang terakhir, lalu menghapus yang terakhir\n        tasks[_index] = tasks[tasks.length - 1];\n        tasks.pop();\n    }\n\n    // Fungsi untuk memperbarui task\n    function updateTask(\n        uint _index,\n        string memory _newTaskName,\n        bool _isCompleted\n    ) public {\n        require(_index < tasks.length, \"Task does not exist.\");\n\n        tasks[_index].taskName = _newTaskName;\n        tasks[_index].isCompleted = _isCompleted;\n    }\n\n    // Fungsi untuk mendapatkan jumlah task\n    function getTaskCount() public view returns (uint) {\n        return tasks.length;\n    }\n\n    // Fungsi untuk mendapatkan task berdasarkan indeks\n    function getTask(\n        uint _index\n    ) public view returns (string memory taskName, bool isCompleted) {\n        require(_index < tasks.length, \"Task does not exist.\");\n        Task storage task = tasks[_index];\n        return (task.taskName, task.isCompleted);\n    }\n}\n",
  "sourcePath": "/Users/marthabakmanis/Documents/BELAJAR/SOLIDITY/decentralized-todo-list/contracts/TodoList.sol",
  "compiler": {
    "name": "solc",
    "version": "0.8.0+commit.c7dfd78e.Emscripten.clang"
  },
  "schemaVersion": "3.4.16",
  "updatedAt": "2024-10-09T03:03:41.075Z",
  "devdoc": {
    "kind": "dev",
    "methods": {},
    "version": 1
  },
  "userdoc": {
    "kind": "user",
    "methods": {},
    "version": 1
  }
}